{
  "_format": "hh-sol-artifact-1",
  "contractName": "Deposit",
  "sourceName": "contracts/Deposit.sol",
  "abi": [
    {
      "inputs": [
        {
          "internalType": "address",
          "name": "_torn_contract",
          "type": "address"
        },
        {
          "internalType": "address",
          "name": "_torn_governance_staking",
          "type": "address"
        },
        {
          "internalType": "address",
          "name": "_torn_relayer_registry",
          "type": "address"
        },
        {
          "internalType": "address",
          "name": "_root_db",
          "type": "address"
        }
      ],
      "stateMutability": "nonpayable",
      "type": "constructor"
    },
    {
      "anonymous": false,
      "inputs": [
        {
          "indexed": false,
          "internalType": "uint8",
          "name": "version",
          "type": "uint8"
        }
      ],
      "name": "Initialized",
      "type": "event"
    },
    {
      "anonymous": false,
      "inputs": [
        {
          "indexed": false,
          "internalType": "uint256",
          "name": "_amount",
          "type": "uint256"
        }
      ],
      "name": "lock_to_gov",
      "type": "event"
    },
    {
      "anonymous": false,
      "inputs": [
        {
          "indexed": false,
          "internalType": "address",
          "name": "_account",
          "type": "address"
        },
        {
          "indexed": false,
          "internalType": "uint256",
          "name": "_token_qty",
          "type": "uint256"
        },
        {
          "indexed": false,
          "internalType": "uint256",
          "name": "_torn",
          "type": "uint256"
        },
        {
          "indexed": false,
          "internalType": "uint256",
          "name": "_profit",
          "type": "uint256"
        }
      ],
      "name": "with_draw",
      "type": "event"
    },
    {
      "inputs": [],
      "name": "IN_SUFFICIENT",
      "outputs": [
        {
          "internalType": "uint256",
          "name": "",
          "type": "uint256"
        }
      ],
      "stateMutability": "view",
      "type": "function"
    },
    {
      "inputs": [],
      "name": "ROOT_DB",
      "outputs": [
        {
          "internalType": "address",
          "name": "",
          "type": "address"
        }
      ],
      "stateMutability": "view",
      "type": "function"
    },
    {
      "inputs": [],
      "name": "SUFFICIENT",
      "outputs": [
        {
          "internalType": "uint256",
          "name": "",
          "type": "uint256"
        }
      ],
      "stateMutability": "view",
      "type": "function"
    },
    {
      "inputs": [],
      "name": "TORN_CONTRACT",
      "outputs": [
        {
          "internalType": "address",
          "name": "",
          "type": "address"
        }
      ],
      "stateMutability": "view",
      "type": "function"
    },
    {
      "inputs": [],
      "name": "TORN_GOVERNANCE_STAKING",
      "outputs": [
        {
          "internalType": "address",
          "name": "",
          "type": "address"
        }
      ],
      "stateMutability": "view",
      "type": "function"
    },
    {
      "inputs": [],
      "name": "TORN_RELAYER_REGISTRY",
      "outputs": [
        {
          "internalType": "address",
          "name": "",
          "type": "address"
        }
      ],
      "stateMutability": "view",
      "type": "function"
    },
    {
      "inputs": [],
      "name": "__Deposit_init",
      "outputs": [],
      "stateMutability": "nonpayable",
      "type": "function"
    },
    {
      "inputs": [],
      "name": "balanceOfStakingOnGov",
      "outputs": [
        {
          "internalType": "uint256",
          "name": "",
          "type": "uint256"
        }
      ],
      "stateMutability": "view",
      "type": "function"
    },
    {
      "inputs": [],
      "name": "checkRewardOnGov",
      "outputs": [
        {
          "internalType": "uint256",
          "name": "",
          "type": "uint256"
        }
      ],
      "stateMutability": "view",
      "type": "function"
    },
    {
      "inputs": [
        {
          "internalType": "uint256",
          "name": "_torn_qty",
          "type": "uint256"
        },
        {
          "internalType": "uint256",
          "name": "deadline",
          "type": "uint256"
        },
        {
          "internalType": "uint8",
          "name": "v",
          "type": "uint8"
        },
        {
          "internalType": "bytes32",
          "name": "r",
          "type": "bytes32"
        },
        {
          "internalType": "bytes32",
          "name": "s",
          "type": "bytes32"
        }
      ],
      "name": "deposit",
      "outputs": [],
      "stateMutability": "nonpayable",
      "type": "function"
    },
    {
      "inputs": [
        {
          "internalType": "address",
          "name": "addr",
          "type": "address"
        },
        {
          "internalType": "uint256",
          "name": "_torn",
          "type": "uint256"
        }
      ],
      "name": "depositIni",
      "outputs": [],
      "stateMutability": "nonpayable",
      "type": "function"
    },
    {
      "inputs": [
        {
          "internalType": "uint256",
          "name": "_token_qty",
          "type": "uint256"
        }
      ],
      "name": "depositWithApproval",
      "outputs": [],
      "stateMutability": "nonpayable",
      "type": "function"
    },
    {
      "inputs": [
        {
          "internalType": "uint256",
          "name": "_token_qty",
          "type": "uint256"
        }
      ],
      "name": "getValueShouldUnlock",
      "outputs": [
        {
          "internalType": "uint256",
          "name": "shortage",
          "type": "uint256"
        },
        {
          "internalType": "uint256",
          "name": "torn",
          "type": "uint256"
        }
      ],
      "stateMutability": "view",
      "type": "function"
    },
    {
      "inputs": [],
      "name": "getValueShouldUnlockFromGov",
      "outputs": [
        {
          "internalType": "uint256",
          "name": "",
          "type": "uint256"
        }
      ],
      "stateMutability": "view",
      "type": "function"
    },
    {
      "inputs": [
        {
          "internalType": "uint256",
          "name": "_token_qty",
          "type": "uint256"
        }
      ],
      "name": "isBalanceEnough",
      "outputs": [
        {
          "internalType": "bool",
          "name": "",
          "type": "bool"
        }
      ],
      "stateMutability": "view",
      "type": "function"
    },
    {
      "inputs": [],
      "name": "isNeedClaimFromGov",
      "outputs": [
        {
          "internalType": "bool",
          "name": "",
          "type": "bool"
        }
      ],
      "stateMutability": "view",
      "type": "function"
    },
    {
      "inputs": [],
      "name": "isNeedTransfer2Queue",
      "outputs": [
        {
          "internalType": "bool",
          "name": "",
          "type": "bool"
        }
      ],
      "stateMutability": "view",
      "type": "function"
    },
    {
      "inputs": [],
      "name": "maxReserveTorn",
      "outputs": [
        {
          "internalType": "uint256",
          "name": "",
          "type": "uint256"
        }
      ],
      "stateMutability": "view",
      "type": "function"
    },
    {
      "inputs": [],
      "name": "maxRewardInGov",
      "outputs": [
        {
          "internalType": "uint256",
          "name": "",
          "type": "uint256"
        }
      ],
      "stateMutability": "view",
      "type": "function"
    },
    {
      "inputs": [],
      "name": "profitRatio",
      "outputs": [
        {
          "internalType": "uint256",
          "name": "",
          "type": "uint256"
        }
      ],
      "stateMutability": "view",
      "type": "function"
    },
    {
      "inputs": [],
      "name": "rewardAddress",
      "outputs": [
        {
          "internalType": "address",
          "name": "",
          "type": "address"
        }
      ],
      "stateMutability": "view",
      "type": "function"
    },
    {
      "inputs": [
        {
          "internalType": "uint256",
          "name": "_index",
          "type": "uint256"
        },
        {
          "internalType": "uint256",
          "name": "_value",
          "type": "uint256"
        }
      ],
      "name": "setPara",
      "outputs": [],
      "stateMutability": "nonpayable",
      "type": "function"
    },
    {
      "inputs": [
        {
          "internalType": "uint256",
          "name": "index",
          "type": "uint256"
        },
        {
          "internalType": "uint256",
          "name": "qty",
          "type": "uint256"
        }
      ],
      "name": "stake2Node",
      "outputs": [],
      "stateMutability": "nonpayable",
      "type": "function"
    },
    {
      "inputs": [],
      "name": "totalBalanceOfTorn",
      "outputs": [
        {
          "internalType": "uint256",
          "name": "ret",
          "type": "uint256"
        }
      ],
      "stateMutability": "view",
      "type": "function"
    },
    {
      "inputs": [
        {
          "internalType": "uint256",
          "name": "_token_qty",
          "type": "uint256"
        }
      ],
      "name": "withDraw",
      "outputs": [],
      "stateMutability": "nonpayable",
      "type": "function"
    },
    {
      "inputs": [
        {
          "internalType": "address",
          "name": "_addr",
          "type": "address"
        },
        {
          "internalType": "uint256",
          "name": "_token_qty",
          "type": "uint256"
        }
      ],
      "name": "withdraw_for_exit",
      "outputs": [
        {
          "internalType": "uint256",
          "name": "ret",
          "type": "uint256"
        }
      ],
      "stateMutability": "nonpayable",
      "type": "function"
    }
  ],
  "bytecode": "0x6101006040523480156200001257600080fd5b5060405162002baf38038062002baf833981016040819052620000359162000075565b6001600160a01b0393841660805291831660a052821660c0521660e052620000d2565b80516001600160a01b03811681146200007057600080fd5b919050565b600080600080608085870312156200008c57600080fd5b620000978562000058565b9350620000a76020860162000058565b9250620000b76040860162000058565b9150620000c76060860162000058565b905092959194509250565b60805160a05160c05160e0516129926200021d600039600081816101ad0152818161044c015281816105cf01528181610908015281816109b601528181610abd01528181610d1201528181610e05015281816110760152818161115e015281816111e0015281816112e2015281816113ba015281816117f601528181611be70152611de2015260008181610339015281816114aa01526114f501526000818161036001528181610bfd01528181610c86015281816116a6015281816118a40152818161194e01528181611b2601528181611d6201528181612016015281816121c401526121ff0152600081816102240152818161074d0152818161098d015281816110000152818161148901528181611556015281816116020152818161176401528181611a7801528181611e7c01528181611ebc0152818161210e01526121a301526129926000f3fe608060405234801561001057600080fd5b506004361061018e5760003560e01c80639615d2ba116100de578063b90a63fa11610097578063e2e622cd11610071578063e2e622cd14610382578063f245e6a01461038a578063fc4c0aec14610393578063fff5ea941461039b57600080fd5b8063b90a63fa1461032c578063b91476f214610334578063c866880e1461035b57600080fd5b80639615d2ba146102c45780639b1bbd05146102cd578063a0779c2f146102e0578063a9fda201146102f3578063adba6bb6146102fb578063b6f4e79a1461032357600080fd5b80633a542c281161014b578063727784fe11610125578063727784fe146102825780637e34dbe0146102955780638576e0a6146102a85780638cf57cb9146102b157600080fd5b80633a542c281461024657806351e48baf14610259578063546cee941461026f57600080fd5b806314174f331461019357806314411a2a146101a85780632224db44146101ec57806322f97b5e146101ff5780632f5dcf031461021757806331e819211461021f575b600080fd5b6101a66101a136600461266f565b6103a4565b005b6101cf7f000000000000000000000000000000000000000000000000000000000000000081565b6040516001600160a01b0390911681526020015b60405180910390f35b6101a66101fa366004612688565b6105cd565b61020761071c565b60405190151581526020016101e3565b6101a66107d6565b6101cf7f000000000000000000000000000000000000000000000000000000000000000081565b6101a661025436600461266f565b61084c565b610261610c6e565b6040519081526020016101e3565b61026161027d3660046126bf565b610d0e565b61020761029036600461266f565b610f92565b6101a66102a33660046126eb565b610fc0565b61026160001981565b6033546101cf906001600160a01b031681565b61026160355481565b6101a66102db3660046126bf565b611074565b6101a66102ee366004612688565b6112e0565b610261611524565b61030e61030936600461266f565b611740565b604080519283526020830191909152016101e3565b61026160011981565b610207611949565b6101cf7f000000000000000000000000000000000000000000000000000000000000000081565b6101cf7f000000000000000000000000000000000000000000000000000000000000000081565b610261611a60565b61026160365481565b610261611b22565b61026160345481565b600260015414156103fc5760405162461bcd60e51b815260206004820152601f60248201527f5265656e7472616e637947756172643a207265656e7472616e742063616c6c0060448201526064015b60405180910390fd5b6002600155610409611be3565b156104485760405162461bcd60e51b815260206004820152600f60248201526e5175657565206e6f7420656d70747960881b60448201526064016103f3565b60007f00000000000000000000000000000000000000000000000000000000000000006001600160a01b031663d543ce0e6040518163ffffffff1660e01b815260040160206040518083038186803b1580156104a357600080fd5b505afa1580156104b7573d6000803e3d6000fd5b505050506040513d601f19601f820116820180604052508101906104db919061273a565b60405163191e2e8360e01b8152336004820152602481018490529091506000906001600160a01b0383169063191e2e8390604401602060405180830381600087803b15801561052957600080fd5b505af115801561053d573d6000803e3d6000fd5b505050506040513d601f19601f820116820180604052508101906105619190612757565b9050600061056e84611cae565b905061057a8183611e4e565b506040805133815260208101869052908101829052606081018390527f4f31e4b99390d24f1f90e67199124611e798b13d90d74422fb39bb3789c99f4c9060800160405180910390a15050600180555050565b7f00000000000000000000000000000000000000000000000000000000000000006001600160a01b031663570ca7356040518163ffffffff1660e01b815260040160206040518083038186803b15801561062657600080fd5b505afa15801561063a573d6000803e3d6000fd5b505050506040513d601f19601f8201168201806040525081019061065e919061273a565b6001600160a01b0316336001600160a01b03161461068e5760405162461bcd60e51b81526004016103f390612770565b816001141561069d5760355550565b81600214156106ac5760365550565b81600314156106d457603380546001600160a01b0319166001600160a01b0383161790555050565b81600414156106e35760345550565b60405162461bcd60e51b815260206004820152600e60248201526d092dcecc2d8d2c840bed2dcc8caf60931b60448201526064016103f3565b600080610727611be3565b90508061073657600091505090565b6040516370a0823160e01b815230600482015281907f00000000000000000000000000000000000000000000000000000000000000006001600160a01b0316906370a082319060240160206040518083038186803b15801561079757600080fd5b505afa1580156107ab573d6000803e3d6000fd5b505050506040513d601f19601f820116820180604052508101906107cf9190612757565b1191505090565b60006107e26001611ee8565b905080156107fa576000805461ff0019166101001790555b610802611f70565b8015610849576000805461ff0019169055604051600181527f7f26b83ff96e1f2b6a682f133852f6798a09c465da95921460cefb3847402498906020015b60405180910390a15b50565b6002600154141561089f5760405162461bcd60e51b815260206004820152601f60248201527f5265656e7472616e637947756172643a207265656e7472616e742063616c6c0060448201526064016103f3565b600260015533816108df5760405162461bcd60e51b815260206004820152600a6024820152696572726f72207061726160b01b60448201526064016103f3565b604051632851206560e21b81526001600160a01b038281166004830152602482018490526000917f00000000000000000000000000000000000000000000000000000000000000009091169063a144819490604401602060405180830381600087803b15801561094e57600080fd5b505af1158015610962573d6000803e3d6000fd5b505050506040513d601f19601f820116820180604052508101906109869190612757565b90506109b47f0000000000000000000000000000000000000000000000000000000000000000833086611fa1565b7f00000000000000000000000000000000000000000000000000000000000000006001600160a01b031663d543ce0e6040518163ffffffff1660e01b815260040160206040518083038186803b158015610a0d57600080fd5b505afa158015610a21573d6000803e3d6000fd5b505050506040513d601f19601f82011682018060405250810190610a45919061273a565b604051630efe6a8b60e01b815233600482015260248101859052604481018390526001600160a01b039190911690630efe6a8b90606401600060405180830381600087803b158015610a9657600080fd5b505af1158015610aaa573d6000803e3d6000fd5b50505050610ab661071c565b15610ba3577f00000000000000000000000000000000000000000000000000000000000000006001600160a01b031663ea9b717e6040518163ffffffff1660e01b815260040160206040518083038186803b158015610b1457600080fd5b505afa158015610b28573d6000803e3d6000fd5b505050506040513d601f19601f82011682018060405250810190610b4c919061273a565b6001600160a01b031663a4ec69386040518163ffffffff1660e01b8152600401600060405180830381600087803b158015610b8657600080fd5b505af1158015610b9a573d6000803e3d6000fd5b50505050610c64565b610bab611949565b15610bbd57610bb8612012565b610c64565b6000610bc7611524565b905080610bde57610bd66120f6565b505050610c67565b6000198114610c6257604051636198e33960e01b8152600481018290527f00000000000000000000000000000000000000000000000000000000000000006001600160a01b031690636198e33990602401600060405180830381600087803b158015610c4957600080fd5b505af1158015610c5d573d6000803e3d6000fd5b505050505b505b50505b5060018055565b604051639ae697bf60e01b81523060048201526000907f00000000000000000000000000000000000000000000000000000000000000006001600160a01b031690639ae697bf906024015b60206040518083038186803b158015610cd157600080fd5b505afa158015610ce5573d6000803e3d6000fd5b505050506040513d601f19601f82011682018060405250810190610d099190612757565b905090565b60007f00000000000000000000000000000000000000000000000000000000000000006001600160a01b031663ea9b717e6040518163ffffffff1660e01b815260040160206040518083038186803b158015610d6957600080fd5b505afa158015610d7d573d6000803e3d6000fd5b505050506040513d601f19601f82011682018060405250810190610da1919061273a565b6001600160a01b0316336001600160a01b031614610e015760405162461bcd60e51b815260206004820152601760248201527f43616c6c6572206973206e6f742065786974517565756500000000000000000060448201526064016103f3565b60007f00000000000000000000000000000000000000000000000000000000000000006001600160a01b031663d543ce0e6040518163ffffffff1660e01b815260040160206040518083038186803b158015610e5c57600080fd5b505afa158015610e70573d6000803e3d6000fd5b505050506040513d601f19601f82011682018060405250810190610e94919061273a565b60405163191e2e8360e01b81526001600160a01b0386811660048301526024820186905291925060009183169063191e2e8390604401602060405180830381600087803b158015610ee457600080fd5b505af1158015610ef8573d6000803e3d6000fd5b505050506040513d601f19601f82011682018060405250810190610f1c9190612757565b90506000610f2985611cae565b9050610f358183611e4e565b604080516001600160a01b038916815260208101889052908101839052606081018490529094507f4f31e4b99390d24f1f90e67199124611e798b13d90d74422fb39bb3789c99f4c9060800160405180910390a150505092915050565b6000610f9c611be3565b15610fa957506000919050565b6000610fb483611740565b50600019119392505050565b60405163d505accf60e01b8152336004820152306024820152604481018690526064810185905260ff8416608482015260a4810183905260c481018290527f00000000000000000000000000000000000000000000000000000000000000006001600160a01b03169063d505accf9060e401600060405180830381600087803b15801561104c57600080fd5b505af1158015611060573d6000803e3d6000fd5b5050505061106d8561084c565b5050505050565b7f00000000000000000000000000000000000000000000000000000000000000006001600160a01b031663570ca7356040518163ffffffff1660e01b815260040160206040518083038186803b1580156110cd57600080fd5b505afa1580156110e1573d6000803e3d6000fd5b505050506040513d601f19601f82011682018060405250810190611105919061273a565b6001600160a01b0316336001600160a01b0316146111355760405162461bcd60e51b81526004016103f390612770565b604051632851206560e21b81526001600160a01b038381166004830152602482018390526000917f00000000000000000000000000000000000000000000000000000000000000009091169063a144819490604401602060405180830381600087803b1580156111a457600080fd5b505af11580156111b8573d6000803e3d6000fd5b505050506040513d601f19601f820116820180604052508101906111dc9190612757565b90507f00000000000000000000000000000000000000000000000000000000000000006001600160a01b031663d543ce0e6040518163ffffffff1660e01b815260040160206040518083038186803b15801561123757600080fd5b505afa15801561124b573d6000803e3d6000fd5b505050506040513d601f19601f8201168201806040525081019061126f919061273a565b604051630efe6a8b60e01b81526001600160a01b03858116600483015260248201859052604482018490529190911690630efe6a8b906064015b600060405180830381600087803b1580156112c357600080fd5b505af11580156112d7573d6000803e3d6000fd5b50505050505050565b7f00000000000000000000000000000000000000000000000000000000000000006001600160a01b031663570ca7356040518163ffffffff1660e01b815260040160206040518083038186803b15801561133957600080fd5b505afa15801561134d573d6000803e3d6000fd5b505050506040513d601f19601f82011682018060405250810190611371919061273a565b6001600160a01b0316336001600160a01b0316146113a15760405162461bcd60e51b81526004016103f390612770565b604051631c1eeaf160e31b8152600481018390526000907f00000000000000000000000000000000000000000000000000000000000000006001600160a01b03169063e0f757889060240160206040518083038186803b15801561140457600080fd5b505afa158015611418573d6000803e3d6000fd5b505050506040513d601f19601f8201168201806040525081019061143c919061273a565b90506001600160a01b0381166114845760405162461bcd60e51b815260206004820152600d60248201526c092dcecc2d8d2c840d2dcc8caf609b1b60448201526064016103f3565b6114cf7f00000000000000000000000000000000000000000000000000000000000000007f000000000000000000000000000000000000000000000000000000000000000084612294565b60405163d990231d60e01b81526001600160a01b038281166004830152602482018490527f0000000000000000000000000000000000000000000000000000000000000000169063d990231d906044016112a9565b60008061152f611be3565b90508061153e57600091505090565b6040516370a0823160e01b81523060048201526000907f00000000000000000000000000000000000000000000000000000000000000006001600160a01b0316906370a082319060240160206040518083038186803b1580156115a057600080fd5b505afa1580156115b4573d6000803e3d6000fd5b505050506040513d601f19601f820116820180604052508101906115d89190612757565b90508082116115ea5760009250505090565b6040516370a0823160e01b81523060048201526000907f00000000000000000000000000000000000000000000000000000000000000006001600160a01b0316906370a082319060240160206040518083038186803b15801561164c57600080fd5b505afa158015611660573d6000803e3d6000fd5b505050506040513d601f19601f820116820180604052508101906116849190612757565b61168e90846127b6565b604051639ae697bf60e01b81523060048201529091507f00000000000000000000000000000000000000000000000000000000000000006001600160a01b031690639ae697bf9060240160206040518083038186803b1580156116f057600080fd5b505afa158015611704573d6000803e3d6000fd5b505050506040513d601f19601f820116820180604052508101906117289190612757565b8111611735579392505050565b600019935050505090565b6040516370a0823160e01b8152306004820152600090819081906001600160a01b037f000000000000000000000000000000000000000000000000000000000000000016906370a082319060240160206040518083038186803b1580156117a657600080fd5b505afa1580156117ba573d6000803e3d6000fd5b505050506040513d601f19601f820116820180604052508101906117de9190612757565b6040516272e6bd60e41b8152600481018690529091507f00000000000000000000000000000000000000000000000000000000000000006001600160a01b03169063072e6bd09060240160206040518083038186803b15801561184057600080fd5b505afa158015611854573d6000803e3d6000fd5b505050506040513d601f19601f820116820180604052508101906118789190612757565b915081811061188c57600119925050915091565b604051639ae697bf60e01b81523060048201526000907f00000000000000000000000000000000000000000000000000000000000000006001600160a01b031690639ae697bf9060240160206040518083038186803b1580156118ee57600080fd5b505afa158015611902573d6000803e3d6000fd5b505050506040513d601f19601f820116820180604052508101906119269190612757565b905061193282846127b6565b9350838110156119425760001993505b5050915091565b6000807f00000000000000000000000000000000000000000000000000000000000000006001600160a01b031663f57df22e6040518163ffffffff1660e01b815260040160206040518083038186803b1580156119a557600080fd5b505afa1580156119b9573d6000803e3d6000fd5b505050506040513d601f19601f820116820180604052508101906119dd919061273a565b6040516330f2439960e21b81523060048201526001600160a01b03919091169063c3c90e649060240160206040518083038186803b158015611a1e57600080fd5b505afa158015611a32573d6000803e3d6000fd5b505050506040513d601f19601f82011682018060405250810190611a569190612757565b6036541092915050565b6040516370a0823160e01b81523060048201526000907f00000000000000000000000000000000000000000000000000000000000000006001600160a01b0316906370a082319060240160206040518083038186803b158015611ac257600080fd5b505afa158015611ad6573d6000803e3d6000fd5b505050506040513d601f19601f82011682018060405250810190611afa9190612757565b9050611b04610c6e565b611b0e90826127cd565b9050611b18611b22565b610d0990826127cd565b60007f00000000000000000000000000000000000000000000000000000000000000006001600160a01b031663f57df22e6040518163ffffffff1660e01b815260040160206040518083038186803b158015611b7d57600080fd5b505afa158015611b91573d6000803e3d6000fd5b505050506040513d601f19601f82011682018060405250810190611bb5919061273a565b6040516330f2439960e21b81523060048201526001600160a01b03919091169063c3c90e6490602401610cb9565b60007f00000000000000000000000000000000000000000000000000000000000000006001600160a01b031663ea9b717e6040518163ffffffff1660e01b815260040160206040518083038186803b158015611c3e57600080fd5b505afa158015611c52573d6000803e3d6000fd5b505050506040513d601f19601f82011682018060405250810190611c76919061273a565b6001600160a01b031663ccfb99356040518163ffffffff1660e01b815260040160206040518083038186803b158015610cd157600080fd5b6000808211611cec5760405162461bcd60e51b815260206004820152600a6024820152696572726f72207061726160b01b60448201526064016103f3565b600080611cf884611740565b9092509050600019821415611d435760405162461bcd60e51b81526020600482015260116024820152701c1bdbdb08125b9cdd59999a58da595b9d607a1b60448201526064016103f3565b6001198214611dc757604051636198e33960e01b8152600481018390527f00000000000000000000000000000000000000000000000000000000000000006001600160a01b031690636198e33990602401600060405180830381600087803b158015611dae57600080fd5b505af1158015611dc2573d6000803e3d6000fd5b505050505b604051629f15d760e81b8152336004820152602481018590527f00000000000000000000000000000000000000000000000000000000000000006001600160a01b031690639f15d70090604401600060405180830381600087803b158015611e2e57600080fd5b505af1158015611e42573d6000803e3d6000fd5b50929695505050505050565b60006103e860345483611e6191906127e5565b611e6b9190612804565b91508115611eab57603354611eab907f0000000000000000000000000000000000000000000000000000000000000000906001600160a01b0316846123bd565b611eb582846127b6565b9050611ee27f000000000000000000000000000000000000000000000000000000000000000033836123bd565b92915050565b60008054610100900460ff1615611f2f578160ff166001148015611f0b5750303b155b611f275760405162461bcd60e51b81526004016103f390612826565b506000919050565b60005460ff808416911610611f565760405162461bcd60e51b81526004016103f390612826565b506000805460ff191660ff92909216919091179055600190565b600054610100900460ff16611f975760405162461bcd60e51b81526004016103f390612874565b611f9f6123ed565b565b6040516001600160a01b038085166024830152831660448201526064810182905261200c9085906323b872dd60e01b906084015b60408051601f198184030181529190526020810180516001600160e01b03166001600160e01b03199093169290921790915261241a565b50505050565b60007f00000000000000000000000000000000000000000000000000000000000000006001600160a01b031663f57df22e6040518163ffffffff1660e01b815260040160206040518083038186803b15801561206d57600080fd5b505afa158015612081573d6000803e3d6000fd5b505050506040513d601f19601f820116820180604052508101906120a5919061273a565b9050806001600160a01b0316633d18b9126040518163ffffffff1660e01b8152600401600060405180830381600087803b1580156120e257600080fd5b505af115801561106d573d6000803e3d6000fd5b6040516370a0823160e01b81523060048201526000907f00000000000000000000000000000000000000000000000000000000000000006001600160a01b0316906370a082319060240160206040518083038186803b15801561215857600080fd5b505afa15801561216c573d6000803e3d6000fd5b505050506040513d601f19601f820116820180604052508101906121909190612757565b9050806035541061219e5750565b6121e97f00000000000000000000000000000000000000000000000000000000000000007f000000000000000000000000000000000000000000000000000000000000000083612294565b6040516316a884d960e31b8152600481018290527f00000000000000000000000000000000000000000000000000000000000000006001600160a01b03169063b54426c890602401600060405180830381600087803b15801561224b57600080fd5b505af115801561225f573d6000803e3d6000fd5b505050507f0f871d9141eb7956fd3128d64eedb6a59621c2221b36a7950075e1780a4cc4318160405161084091815260200190565b80158061231d5750604051636eb1769f60e11b81523060048201526001600160a01b03838116602483015284169063dd62ed3e9060440160206040518083038186803b1580156122e357600080fd5b505afa1580156122f7573d6000803e3d6000fd5b505050506040513d601f19601f8201168201806040525081019061231b9190612757565b155b6123885760405162461bcd60e51b815260206004820152603660248201527f5361666545524332303a20617070726f76652066726f6d206e6f6e2d7a65726f60448201527520746f206e6f6e2d7a65726f20616c6c6f77616e636560501b60648201526084016103f3565b6040516001600160a01b0383166024820152604481018290526123b890849063095ea7b360e01b90606401611fd5565b505050565b6040516001600160a01b0383166024820152604481018290526123b890849063a9059cbb60e01b90606401611fd5565b600054610100900460ff166124145760405162461bcd60e51b81526004016103f390612874565b60018055565b600061246f826040518060400160405280602081526020017f5361666545524332303a206c6f772d6c6576656c2063616c6c206661696c6564815250856001600160a01b03166124ec9092919063ffffffff16565b8051909150156123b8578080602001905181019061248d91906128bf565b6123b85760405162461bcd60e51b815260206004820152602a60248201527f5361666545524332303a204552433230206f7065726174696f6e20646964206e6044820152691bdd081cdd58d8d9595960b21b60648201526084016103f3565b60606124fb8484600085612505565b90505b9392505050565b6060824710156125665760405162461bcd60e51b815260206004820152602660248201527f416464726573733a20696e73756666696369656e742062616c616e636520666f6044820152651c8818d85b1b60d21b60648201526084016103f3565b6001600160a01b0385163b6125bd5760405162461bcd60e51b815260206004820152601d60248201527f416464726573733a2063616c6c20746f206e6f6e2d636f6e747261637400000060448201526064016103f3565b600080866001600160a01b031685876040516125d9919061290d565b60006040518083038185875af1925050503d8060008114612616576040519150601f19603f3d011682016040523d82523d6000602084013e61261b565b606091505b509150915061262b828286612636565b979650505050505050565b606083156126455750816124fe565b8251156126555782518084602001fd5b8160405162461bcd60e51b81526004016103f39190612929565b60006020828403121561268157600080fd5b5035919050565b6000806040838503121561269b57600080fd5b50508035926020909101359150565b6001600160a01b038116811461084957600080fd5b600080604083850312156126d257600080fd5b82356126dd816126aa565b946020939093013593505050565b600080600080600060a0868803121561270357600080fd5b8535945060208601359350604086013560ff8116811461272257600080fd5b94979396509394606081013594506080013592915050565b60006020828403121561274c57600080fd5b81516124fe816126aa565b60006020828403121561276957600080fd5b5051919050565b60208082526016908201527521b0b63632b91034b9903737ba1037b832b930ba37b960511b604082015260600190565b634e487b7160e01b600052601160045260246000fd5b6000828210156127c8576127c86127a0565b500390565b600082198211156127e0576127e06127a0565b500190565b60008160001904831182151516156127ff576127ff6127a0565b500290565b60008261282157634e487b7160e01b600052601260045260246000fd5b500490565b6020808252602e908201527f496e697469616c697a61626c653a20636f6e747261637420697320616c72656160408201526d191e481a5b9a5d1a585b1a5e995960921b606082015260800190565b6020808252602b908201527f496e697469616c697a61626c653a20636f6e7472616374206973206e6f74206960408201526a6e697469616c697a696e6760a81b606082015260800190565b6000602082840312156128d157600080fd5b815180151581146124fe57600080fd5b60005b838110156128fc5781810151838201526020016128e4565b8381111561200c5750506000910152565b6000825161291f8184602087016128e1565b9190910192915050565b60208152600082518060208401526129488160408501602087016128e1565b601f01601f1916919091016040019291505056fea2646970667358221220b3b7b96191e8f22220b119adaefc602dfcea7831de601792e379a59584366ef264736f6c63430008090033",
  "linkReferences": {},
  "deployedLinkReferences": {}
}