{
  "_format": "hh-sol-artifact-1",
  "contractName": "ExitQueue",
  "sourceName": "contracts/ExitQueue.sol",
  "abi": [
    {
      "inputs": [
        {
          "internalType": "address",
          "name": "_torn_contract",
          "type": "address"
        },
        {
          "internalType": "address",
          "name": "_root_db",
          "type": "address"
        }
      ],
      "stateMutability": "nonpayable",
      "type": "constructor"
    },
    {
      "anonymous": false,
      "inputs": [
        {
          "indexed": false,
          "internalType": "uint8",
          "name": "version",
          "type": "uint8"
        }
      ],
      "name": "Initialized",
      "type": "event"
    },
    {
      "anonymous": false,
      "inputs": [
        {
          "indexed": false,
          "internalType": "address",
          "name": "_account",
          "type": "address"
        },
        {
          "indexed": false,
          "internalType": "uint256",
          "name": "_token_qty",
          "type": "uint256"
        }
      ],
      "name": "add_queue",
      "type": "event"
    },
    {
      "anonymous": false,
      "inputs": [
        {
          "indexed": false,
          "internalType": "address",
          "name": "account",
          "type": "address"
        },
        {
          "indexed": false,
          "internalType": "uint256",
          "name": "token_qty",
          "type": "uint256"
        }
      ],
      "name": "cancel_queue",
      "type": "event"
    },
    {
      "inputs": [],
      "name": "INDEX_ERR",
      "outputs": [
        {
          "internalType": "uint256",
          "name": "",
          "type": "uint256"
        }
      ],
      "stateMutability": "view",
      "type": "function"
    },
    {
      "inputs": [],
      "name": "MAX_QUEUE_CANCEL",
      "outputs": [
        {
          "internalType": "uint256",
          "name": "",
          "type": "uint256"
        }
      ],
      "stateMutability": "view",
      "type": "function"
    },
    {
      "inputs": [],
      "name": "ROOT_DB",
      "outputs": [
        {
          "internalType": "address",
          "name": "",
          "type": "address"
        }
      ],
      "stateMutability": "view",
      "type": "function"
    },
    {
      "inputs": [],
      "name": "TORN_CONTRACT",
      "outputs": [
        {
          "internalType": "address",
          "name": "",
          "type": "address"
        }
      ],
      "stateMutability": "view",
      "type": "function"
    },
    {
      "inputs": [],
      "name": "UpdateSkipIndex",
      "outputs": [],
      "stateMutability": "nonpayable",
      "type": "function"
    },
    {
      "inputs": [],
      "name": "__ExitQueue_init",
      "outputs": [],
      "stateMutability": "nonpayable",
      "type": "function"
    },
    {
      "inputs": [
        {
          "internalType": "uint256",
          "name": "_token_qty",
          "type": "uint256"
        }
      ],
      "name": "addQueue",
      "outputs": [],
      "stateMutability": "nonpayable",
      "type": "function"
    },
    {
      "inputs": [
        {
          "internalType": "address",
          "name": "",
          "type": "address"
        }
      ],
      "name": "addr2index",
      "outputs": [
        {
          "internalType": "uint256",
          "name": "",
          "type": "uint256"
        }
      ],
      "stateMutability": "view",
      "type": "function"
    },
    {
      "inputs": [],
      "name": "cancelQueue",
      "outputs": [],
      "stateMutability": "nonpayable",
      "type": "function"
    },
    {
      "inputs": [],
      "name": "claim",
      "outputs": [],
      "stateMutability": "nonpayable",
      "type": "function"
    },
    {
      "inputs": [],
      "name": "executeQueue",
      "outputs": [],
      "stateMutability": "nonpayable",
      "type": "function"
    },
    {
      "inputs": [
        {
          "internalType": "address",
          "name": "_addr",
          "type": "address"
        }
      ],
      "name": "getQueueInfo",
      "outputs": [
        {
          "internalType": "uint256",
          "name": "v",
          "type": "uint256"
        },
        {
          "internalType": "bool",
          "name": "prepared",
          "type": "bool"
        }
      ],
      "stateMutability": "view",
      "type": "function"
    },
    {
      "inputs": [
        {
          "internalType": "uint256",
          "name": "",
          "type": "uint256"
        }
      ],
      "name": "index2value",
      "outputs": [
        {
          "internalType": "uint256",
          "name": "v",
          "type": "uint256"
        },
        {
          "internalType": "address",
          "name": "addr",
          "type": "address"
        }
      ],
      "stateMutability": "view",
      "type": "function"
    },
    {
      "inputs": [],
      "name": "maxIndex",
      "outputs": [
        {
          "internalType": "uint256",
          "name": "",
          "type": "uint256"
        }
      ],
      "stateMutability": "view",
      "type": "function"
    },
    {
      "inputs": [],
      "name": "nextSkipIndex",
      "outputs": [
        {
          "internalType": "uint256",
          "name": "",
          "type": "uint256"
        }
      ],
      "stateMutability": "view",
      "type": "function"
    },
    {
      "inputs": [],
      "name": "nextValue",
      "outputs": [
        {
          "internalType": "uint256",
          "name": "value",
          "type": "uint256"
        }
      ],
      "stateMutability": "view",
      "type": "function"
    },
    {
      "inputs": [],
      "name": "preparedIndex",
      "outputs": [
        {
          "internalType": "uint256",
          "name": "",
          "type": "uint256"
        }
      ],
      "stateMutability": "view",
      "type": "function"
    }
  ],
  "bytecode": "0x60c06040526000603355600060345534801561001a57600080fd5b5060405161134a38038061134a8339810160408190526100399161006c565b6001600160a01b0391821660a0521660805261009f565b80516001600160a01b038116811461006757600080fd5b919050565b6000806040838503121561007f57600080fd5b61008883610050565b915061009660208401610050565b90509250929050565b60805160a0516112636100e7600039600081816101cd015261056f01526000818161016f015281816104080152818161068e0152818161072401526109e001526112636000f3fe608060405234801561001057600080fd5b506004361061010b5760003560e01c806366c5b2cb116100a2578063ccfb993511610071578063ccfb99351461024e578063cd0b038914610256578063db87a16b1461025e578063dbe293dd146102ab578063f204fdd0146102b357600080fd5b806366c5b2cb1461022c5780637600b232146102345780639b35742a1461023d578063a4ec69381461024657600080fd5b806331e81921116100de57806331e81921146101c85780634df9532e146101ef5780634e71d92d146102045780635e292a381461020c57600080fd5b806301f682021461011057806314411a2a1461016a5780632640cd38146101a95780632ca869bf146101bf575b600080fd5b61015061011e366004610ff4565b6001600160a01b0316600090815260356020908152604080832054808452603690925290912054603354909291111590565b604080519283529015156020830152015b60405180910390f35b6101917f000000000000000000000000000000000000000000000000000000000000000081565b6040516001600160a01b039091168152602001610161565b6101b1606481565b604051908152602001610161565b6101b160345481565b6101917f000000000000000000000000000000000000000000000000000000000000000081565b6102026101fd366004611011565b6102bb565b005b61020261046f565b6101b161021a366004610ff4565b60356020526000908152604090205481565b61020261059d565b6101b160335481565b6101b160001981565b6102026106f5565b6101b1610939565b610202610a69565b61028e61026c366004611011565b603660205260009081526040902080546001909101546001600160a01b031682565b604080519283526001600160a01b03909116602083015201610161565b6101b1610b07565b610202610b89565b600260015414156102e75760405162461bcd60e51b81526004016102de9061102a565b60405180910390fd5b6002600190815560348054600090610300908490611077565b90915550508061033f5760405162461bcd60e51b815260206004820152600a6024820152696572726f72207061726160b01b60448201526064016102de565b3360009081526035602052604090205415801561036b5750603454600090815260366020526040902054155b6103a65760405162461bcd60e51b815260206004820152600c60248201526b686176652070656e64696e6760a01b60448201526064016102de565b603454336000818152603560209081526040808320859055805180820182528681528083018581529584526036909252909120905181559151600190920180546001600160a01b0319166001600160a01b039093169290921790915561042f907f0000000000000000000000000000000000000000000000000000000000000000903084610bfe565b60408051338152602081018390527f93c3d7d241ecd6c3f45b6d4c5c24c03e65686d5ab639e1a21d73c08070b3f857910160405180910390a15060018055565b600260015414156104925760405162461bcd60e51b81526004016102de9061102a565b6002600155336000908152603560205260409020546033548111156104e85760405162461bcd60e51b815260206004820152600c60248201526b1b9bdd081c1c995c185c995960a21b60448201526064016102de565b600081815260366020526040902054806105365760405162461bcd60e51b815260206004820152600f60248201526e68617665206e6f2070656e64696e6760881b60448201526064016102de565b3360008181526035602090815260408083208390558583526036909152812090815560010180546001600160a01b0319169055610595907f00000000000000000000000000000000000000000000000000000000000000009083610c6f565b505060018055565b600260015414156105c05760405162461bcd60e51b81526004016102de9061102a565b600260015533600090815260356020908152604080832054808452603690925290912054806106195760405162461bcd60e51b8152602060048201526005602482015264656d70747960d81b60448201526064016102de565b60335482116106555760405162461bcd60e51b81526020600482015260086024820152671c1c995c185c995960c21b60448201526064016102de565b3360008181526035602090815260408083208390558583526036909152812090815560010180546001600160a01b03191690556106b4907f00000000000000000000000000000000000000000000000000000000000000009083610c6f565b60408051338152602081018390527f928514c1eab4e0264fc2a61e4dfac1747511111f0df535fee55cab3890ad6eb6910160405180910390a1505060018055565b600260015414156107185760405162461bcd60e51b81526004016102de9061102a565b600260018190555060007f00000000000000000000000000000000000000000000000000000000000000006001600160a01b031663e94ad65b6040518163ffffffff1660e01b815260040160206040518083038186803b15801561077b57600080fd5b505afa15801561078f573d6000803e3d6000fd5b505050506040513d601f19601f820116820180604052508101906107b3919061108f565b9050600060335460016107c69190611077565b60345410156108045760405162461bcd60e51b815260206004820152600a6024820152696e6f2070656e64696e6760b01b60448201526064016102de565b600061080e610b07565b90508060001914156108535760405162461bcd60e51b815260206004820152600e60248201526d746f6f206d616e7920736b69707360901b60448201526064016102de565b80603360008282546108659190611077565b90915550506033546000908152603660209081526040918290208251808401845281548082526001909201546001600160a01b03908116938201849052935163151b3ba560e21b8152600481019390935260248301919091529185169063546cee9490604401602060405180830381600087803b1580156108e557600080fd5b505af11580156108f9573d6000803e3d6000fd5b505050506040513d601f19601f8201168201806040525081019061091d91906110ac565b6033546000908152603660205260409020555050600180555050565b600080610944610b07565b90508061095357600091505090565b8060001914156109965760405162461bcd60e51b815260206004820152600e60248201526d746f6f206d616e7920736b69707360901b60448201526064016102de565b600060366000836033546109aa9190611077565b81526020810191909152604001600020549050806109cb5760009250505090565b6040516272e6bd60e41b8152600481018290527f00000000000000000000000000000000000000000000000000000000000000006001600160a01b03169063072e6bd09060240160206040518083038186803b158015610a2a57600080fd5b505afa158015610a3e573d6000803e3d6000fd5b505050506040513d601f19601f82011682018060405250810190610a6291906110ac565b9250505090565b60026001541415610a8c5760405162461bcd60e51b81526004016102de9061102a565b60026001556000610a9b610b07565b90506000198114610ae25760405162461bcd60e51b81526020600482015260116024820152701cdada5c081a5cc81d1bdbc81cda1bdc9d607a1b60448201526064016102de565b60016064603354610af39190611077565b610afd91906110c5565b6033555060018055565b603454603354600091908280828411610b2557600094505050505090565b5060015b6064811015610b7d57610b3c8184611077565b60008181526036602052604090205490925084831480610b5c5750600081115b15610b6a5750949350505050565b5080610b75816110dc565b915050610b29565b60001994505050505090565b6000610b956001610ca4565b90508015610bad576000805461ff0019166101001790555b610bb5610d2c565b8015610bfb576000805461ff0019169055604051600181527f7f26b83ff96e1f2b6a682f133852f6798a09c465da95921460cefb38474024989060200160405180910390a15b50565b6040516001600160a01b0380851660248301528316604482015260648101829052610c699085906323b872dd60e01b906084015b60408051601f198184030181529190526020810180516001600160e01b03166001600160e01b031990931692909217909152610d5d565b50505050565b6040516001600160a01b038316602482015260448101829052610c9f90849063a9059cbb60e01b90606401610c32565b505050565b60008054610100900460ff1615610ceb578160ff166001148015610cc75750303b155b610ce35760405162461bcd60e51b81526004016102de906110f7565b506000919050565b60005460ff808416911610610d125760405162461bcd60e51b81526004016102de906110f7565b506000805460ff191660ff92909216919091179055600190565b600054610100900460ff16610d535760405162461bcd60e51b81526004016102de90611145565b610d5b610e2f565b565b6000610db2826040518060400160405280602081526020017f5361666545524332303a206c6f772d6c6576656c2063616c6c206661696c6564815250856001600160a01b0316610e5c9092919063ffffffff16565b805190915015610c9f5780806020019051810190610dd09190611190565b610c9f5760405162461bcd60e51b815260206004820152602a60248201527f5361666545524332303a204552433230206f7065726174696f6e20646964206e6044820152691bdd081cdd58d8d9595960b21b60648201526084016102de565b600054610100900460ff16610e565760405162461bcd60e51b81526004016102de90611145565b60018055565b6060610e6b8484600085610e75565b90505b9392505050565b606082471015610ed65760405162461bcd60e51b815260206004820152602660248201527f416464726573733a20696e73756666696369656e742062616c616e636520666f6044820152651c8818d85b1b60d21b60648201526084016102de565b6001600160a01b0385163b610f2d5760405162461bcd60e51b815260206004820152601d60248201527f416464726573733a2063616c6c20746f206e6f6e2d636f6e747261637400000060448201526064016102de565b600080866001600160a01b03168587604051610f4991906111de565b60006040518083038185875af1925050503d8060008114610f86576040519150601f19603f3d011682016040523d82523d6000602084013e610f8b565b606091505b5091509150610f9b828286610fa6565b979650505050505050565b60608315610fb5575081610e6e565b825115610fc55782518084602001fd5b8160405162461bcd60e51b81526004016102de91906111fa565b6001600160a01b0381168114610bfb57600080fd5b60006020828403121561100657600080fd5b8135610e6e81610fdf565b60006020828403121561102357600080fd5b5035919050565b6020808252601f908201527f5265656e7472616e637947756172643a207265656e7472616e742063616c6c00604082015260600190565b634e487b7160e01b600052601160045260246000fd5b6000821982111561108a5761108a611061565b500190565b6000602082840312156110a157600080fd5b8151610e6e81610fdf565b6000602082840312156110be57600080fd5b5051919050565b6000828210156110d7576110d7611061565b500390565b60006000198214156110f0576110f0611061565b5060010190565b6020808252602e908201527f496e697469616c697a61626c653a20636f6e747261637420697320616c72656160408201526d191e481a5b9a5d1a585b1a5e995960921b606082015260800190565b6020808252602b908201527f496e697469616c697a61626c653a20636f6e7472616374206973206e6f74206960408201526a6e697469616c697a696e6760a81b606082015260800190565b6000602082840312156111a257600080fd5b81518015158114610e6e57600080fd5b60005b838110156111cd5781810151838201526020016111b5565b83811115610c695750506000910152565b600082516111f08184602087016111b2565b9190910192915050565b60208152600082518060208401526112198160408501602087016111b2565b601f01601f1916919091016040019291505056fea2646970667358221220d05be6ddf16e52926927f899fdb403e27fde67f905ed76eccfa5987ad3ca3ea364736f6c63430008090033",
  "linkReferences": {},
  "deployedLinkReferences": {}
}