{
  "_format": "hh-sol-artifact-1",
  "contractName": "Income",
  "sourceName": "contracts/InCome.sol",
  "abi": [
    {
      "inputs": [
        {
          "internalType": "address",
          "name": "_torn_contract",
          "type": "address"
        },
        {
          "internalType": "address",
          "name": "_root_db",
          "type": "address"
        }
      ],
      "stateMutability": "nonpayable",
      "type": "constructor"
    },
    {
      "anonymous": false,
      "inputs": [
        {
          "indexed": false,
          "internalType": "uint256",
          "name": "torn",
          "type": "uint256"
        }
      ],
      "name": "distribute_torn",
      "type": "event"
    },
    {
      "inputs": [],
      "name": "ROOT_DB",
      "outputs": [
        {
          "internalType": "address",
          "name": "",
          "type": "address"
        }
      ],
      "stateMutability": "view",
      "type": "function"
    },
    {
      "inputs": [],
      "name": "TORN_CONTRACT",
      "outputs": [
        {
          "internalType": "address",
          "name": "",
          "type": "address"
        }
      ],
      "stateMutability": "view",
      "type": "function"
    },
    {
      "inputs": [
        {
          "internalType": "uint256",
          "name": "_torn_qty",
          "type": "uint256"
        }
      ],
      "name": "distributeTorn",
      "outputs": [],
      "stateMutability": "nonpayable",
      "type": "function"
    },
    {
      "stateMutability": "payable",
      "type": "receive"
    }
  ],
  "bytecode": "0x60c060405234801561001057600080fd5b5060405161067038038061067083398101604081905261002f91610062565b6001600160a01b0391821660a05216608052610095565b80516001600160a01b038116811461005d57600080fd5b919050565b6000806040838503121561007557600080fd5b61007e83610046565b915061008c60208401610046565b90509250929050565b60805160a0516105ab6100c56000396000818160a601526101840152600081816056015260ee01526105ab6000f3fe6080604052600436106100385760003560e01c806314411a2a1461004457806331e81921146100945780638bf6b1e2146100c857600080fd5b3661003f57005b600080fd5b34801561005057600080fd5b506100787f000000000000000000000000000000000000000000000000000000000000000081565b6040516001600160a01b03909116815260200160405180910390f35b3480156100a057600080fd5b506100787f000000000000000000000000000000000000000000000000000000000000000081565b3480156100d457600080fd5b506100e86100e3366004610492565b6100ea565b005b60007f00000000000000000000000000000000000000000000000000000000000000006001600160a01b031663e94ad65b6040518163ffffffff1660e01b815260040160206040518083038186803b15801561014557600080fd5b505afa158015610159573d6000803e3d6000fd5b505050506040513d601f19601f8201168201806040525081019061017d91906104ab565b90506101aa7f000000000000000000000000000000000000000000000000000000000000000082846101e1565b6040518281527f659d2275cab66c09f6d4fdbe1f81b06434b3cabfd8f4f7ce1f5f443554adfcf39060200160405180910390a15050565b604080516001600160a01b038416602482015260448082018490528251808303909101815260649091019091526020810180516001600160e01b031663a9059cbb60e01b179052610233908490610238565b505050565b600061028d826040518060400160405280602081526020017f5361666545524332303a206c6f772d6c6576656c2063616c6c206661696c6564815250856001600160a01b031661030f9092919063ffffffff16565b80519091501561023357808060200190518101906102ab91906104d4565b6102335760405162461bcd60e51b815260206004820152602a60248201527f5361666545524332303a204552433230206f7065726174696f6e20646964206e6044820152691bdd081cdd58d8d9595960b21b60648201526084015b60405180910390fd5b606061031e8484600085610328565b90505b9392505050565b6060824710156103895760405162461bcd60e51b815260206004820152602660248201527f416464726573733a20696e73756666696369656e742062616c616e636520666f6044820152651c8818d85b1b60d21b6064820152608401610306565b6001600160a01b0385163b6103e05760405162461bcd60e51b815260206004820152601d60248201527f416464726573733a2063616c6c20746f206e6f6e2d636f6e74726163740000006044820152606401610306565b600080866001600160a01b031685876040516103fc9190610526565b60006040518083038185875af1925050503d8060008114610439576040519150601f19603f3d011682016040523d82523d6000602084013e61043e565b606091505b509150915061044e828286610459565b979650505050505050565b60608315610468575081610321565b8251156104785782518084602001fd5b8160405162461bcd60e51b81526004016103069190610542565b6000602082840312156104a457600080fd5b5035919050565b6000602082840312156104bd57600080fd5b81516001600160a01b038116811461032157600080fd5b6000602082840312156104e657600080fd5b8151801515811461032157600080fd5b60005b838110156105115781810151838201526020016104f9565b83811115610520576000848401525b50505050565b600082516105388184602087016104f6565b9190910192915050565b60208152600082518060208401526105618160408501602087016104f6565b601f01601f1916919091016040019291505056fea2646970667358221220256ddcad01ea2b920bb5e173ea2e034dfbf489e491555895b5280b08ee2cae4464736f6c63430008090033",
  "linkReferences": {},
  "deployedLinkReferences": {}
}