{
  "_format": "hh-sol-artifact-1",
  "contractName": "ProfitRecord",
  "sourceName": "contracts/ProfitRecord.sol",
  "abi": [
    {
      "inputs": [
        {
          "internalType": "address",
          "name": "_torn_contract",
          "type": "address"
        },
        {
          "internalType": "address",
          "name": "_root_db",
          "type": "address"
        }
      ],
      "stateMutability": "nonpayable",
      "type": "constructor"
    },
    {
      "anonymous": false,
      "inputs": [
        {
          "indexed": false,
          "internalType": "uint8",
          "name": "version",
          "type": "uint8"
        }
      ],
      "name": "Initialized",
      "type": "event"
    },
    {
      "inputs": [],
      "name": "ROOT_DB",
      "outputs": [
        {
          "internalType": "address",
          "name": "",
          "type": "address"
        }
      ],
      "stateMutability": "view",
      "type": "function"
    },
    {
      "inputs": [],
      "name": "TORN_CONTRACT",
      "outputs": [
        {
          "internalType": "address",
          "name": "",
          "type": "address"
        }
      ],
      "stateMutability": "view",
      "type": "function"
    },
    {
      "inputs": [],
      "name": "__ProfitRecord_init",
      "outputs": [],
      "stateMutability": "nonpayable",
      "type": "function"
    },
    {
      "inputs": [
        {
          "internalType": "address",
          "name": "_addr",
          "type": "address"
        },
        {
          "internalType": "uint256",
          "name": "_torn_amount",
          "type": "uint256"
        },
        {
          "internalType": "uint256",
          "name": "_token_qty",
          "type": "uint256"
        }
      ],
      "name": "deposit",
      "outputs": [],
      "stateMutability": "nonpayable",
      "type": "function"
    },
    {
      "inputs": [
        {
          "internalType": "address",
          "name": "_addr",
          "type": "address"
        },
        {
          "internalType": "uint256",
          "name": "_token_qty",
          "type": "uint256"
        }
      ],
      "name": "getProfit",
      "outputs": [
        {
          "internalType": "uint256",
          "name": "profit",
          "type": "uint256"
        }
      ],
      "stateMutability": "view",
      "type": "function"
    },
    {
      "inputs": [
        {
          "internalType": "address",
          "name": "",
          "type": "address"
        }
      ],
      "name": "profitStore",
      "outputs": [
        {
          "internalType": "uint256",
          "name": "price",
          "type": "uint256"
        },
        {
          "internalType": "uint256",
          "name": "amount",
          "type": "uint256"
        }
      ],
      "stateMutability": "view",
      "type": "function"
    },
    {
      "inputs": [
        {
          "internalType": "address",
          "name": "_addr",
          "type": "address"
        },
        {
          "internalType": "uint256",
          "name": "_token_qty",
          "type": "uint256"
        }
      ],
      "name": "withDraw",
      "outputs": [
        {
          "internalType": "uint256",
          "name": "profit",
          "type": "uint256"
        }
      ],
      "stateMutability": "nonpayable",
      "type": "function"
    }
  ],
  "bytecode": "0x60c060405234801561001057600080fd5b50604051610a56380380610a5683398101604081905261002f91610062565b6001600160a01b0391821660a05216608052610095565b80516001600160a01b038116811461005d57600080fd5b919050565b6000806040838503121561007557600080fd5b61007e83610046565b915061008c60208401610046565b90509250929050565b60805160a0516109886100ce600039600061013d015260008181609c0152818161017c0152818161038501526105ff01526109886000f3fe608060405234801561001057600080fd5b506004361061007d5760003560e01c80631f7d79481161005b5780631f7d7948146100fc57806331e8192114610138578063447890b01461015f578063b69bc3581461016757600080fd5b80630efe6a8b1461008257806314411a2a14610097578063191e2e83146100db575b600080fd5b6100956100903660046107c3565b61017a565b005b6100be7f000000000000000000000000000000000000000000000000000000000000000081565b6040516001600160a01b0390911681526020015b60405180910390f35b6100ee6100e93660046107f8565b610381565b6040519081526020016100d2565b61012361010a366004610824565b6033602052600090815260409020805460019091015482565b604080519283526020830191909152016100d2565b6100be7f000000000000000000000000000000000000000000000000000000000000000081565b610095610500565b6100ee6101753660046107f8565b610575565b7f00000000000000000000000000000000000000000000000000000000000000006001600160a01b031663e94ad65b6040518163ffffffff1660e01b815260040160206040518083038186803b1580156101d357600080fd5b505afa1580156101e7573d6000803e3d6000fd5b505050506040513d601f19601f8201168201806040525081019061020b9190610848565b6001600160a01b0316336001600160a01b0316146102705760405162461bcd60e51b815260206004820152601d60248201527f43616c6c6572206973206e6f74206465706f736974436f6e747261637400000060448201526064015b60405180910390fd5b6001600160a01b038316600090815260336020908152604091829020825180840190935280548352600101549082018190526102ec576000826102bb85670de0b6b3a764000061087b565b6102c5919061089a565b6001600160a01b03861660009081526033602052604090209081556001018390555061037b565b60208101516102fb90836108bc565b61030d84670de0b6b3a764000061087b565b8251602084015161031e919061087b565b61032891906108bc565b610332919061089a565b6001600160a01b03851660009081526033602090815260409091209190915581015161035e90836108bc565b6001600160a01b0385166000908152603360205260409020600101555b50505050565b60007f00000000000000000000000000000000000000000000000000000000000000006001600160a01b031663e94ad65b6040518163ffffffff1660e01b815260040160206040518083038186803b1580156103dc57600080fd5b505afa1580156103f0573d6000803e3d6000fd5b505050506040513d601f19601f820116820180604052508101906104149190610848565b6001600160a01b0316336001600160a01b0316146104745760405162461bcd60e51b815260206004820152601d60248201527f43616c6c6572206973206e6f74206465706f736974436f6e74726163740000006044820152606401610267565b61047e8383610575565b6001600160a01b0384166000908152603360205260409020600101549091508210156104da576001600160a01b038316600090815260336020526040812060010180548492906104cf9084906108d4565b909155506104fa9050565b6001600160a01b0383166000908152603360205260408120818155600101555b92915050565b600061050c60016106b9565b90508015610524576000805461ff0019166101001790555b61052c610741565b8015610572576000805461ff0019169055604051600181527f7f26b83ff96e1f2b6a682f133852f6798a09c465da95921460cefb38474024989060200160405180910390a15b50565b6001600160a01b038216600090815260336020908152604080832081518083019092528054825260010154918101829052908311156105e75760405162461bcd60e51b815260206004820152600e60248201526d32b939103937b7ba103a37b5b2b760911b6044820152606401610267565b6040516272e6bd60e41b8152600481018490526000907f00000000000000000000000000000000000000000000000000000000000000006001600160a01b03169063072e6bd09060240160206040518083038186803b15801561064957600080fd5b505afa15801561065d573d6000803e3d6000fd5b505050506040513d601f19601f8201168201806040525081019061068191906108eb565b9050670de0b6b3a764000084836000015161069c919061087b565b6106a6919061089a565b6106b090826108d4565b95945050505050565b60008054610100900460ff1615610700578160ff1660011480156106dc5750303b155b6106f85760405162461bcd60e51b815260040161026790610904565b506000919050565b60005460ff8084169116106107275760405162461bcd60e51b815260040161026790610904565b506000805460ff191660ff92909216919091179055600190565b600054610100900460ff166107ac5760405162461bcd60e51b815260206004820152602b60248201527f496e697469616c697a61626c653a20636f6e7472616374206973206e6f74206960448201526a6e697469616c697a696e6760a81b6064820152608401610267565b565b6001600160a01b038116811461057257600080fd5b6000806000606084860312156107d857600080fd5b83356107e3816107ae565b95602085013595506040909401359392505050565b6000806040838503121561080b57600080fd5b8235610816816107ae565b946020939093013593505050565b60006020828403121561083657600080fd5b8135610841816107ae565b9392505050565b60006020828403121561085a57600080fd5b8151610841816107ae565b634e487b7160e01b600052601160045260246000fd5b600081600019048311821515161561089557610895610865565b500290565b6000826108b757634e487b7160e01b600052601260045260246000fd5b500490565b600082198211156108cf576108cf610865565b500190565b6000828210156108e6576108e6610865565b500390565b6000602082840312156108fd57600080fd5b5051919050565b6020808252602e908201527f496e697469616c697a61626c653a20636f6e747261637420697320616c72656160408201526d191e481a5b9a5d1a585b1a5e995960921b60608201526080019056fea264697066735822122056a2fc9383df72b79ce4986aaddd40e52f731f9fc829e3634f77c44227fe368964736f6c63430008090033",
  "linkReferences": {},
  "deployedLinkReferences": {}
}