{
  "_format": "hh-sol-artifact-1",
  "contractName": "RootDB",
  "sourceName": "contracts/RootDB.sol",
  "abi": [
    {
      "inputs": [
        {
          "internalType": "address",
          "name": "_torn_relayer_registry",
          "type": "address"
        },
        {
          "internalType": "address",
          "name": "_torn_contract",
          "type": "address"
        }
      ],
      "stateMutability": "nonpayable",
      "type": "constructor"
    },
    {
      "anonymous": false,
      "inputs": [
        {
          "indexed": true,
          "internalType": "address",
          "name": "owner",
          "type": "address"
        },
        {
          "indexed": true,
          "internalType": "address",
          "name": "spender",
          "type": "address"
        },
        {
          "indexed": false,
          "internalType": "uint256",
          "name": "value",
          "type": "uint256"
        }
      ],
      "name": "Approval",
      "type": "event"
    },
    {
      "anonymous": false,
      "inputs": [
        {
          "indexed": false,
          "internalType": "uint8",
          "name": "version",
          "type": "uint8"
        }
      ],
      "name": "Initialized",
      "type": "event"
    },
    {
      "anonymous": false,
      "inputs": [
        {
          "indexed": true,
          "internalType": "address",
          "name": "previousOwner",
          "type": "address"
        },
        {
          "indexed": true,
          "internalType": "address",
          "name": "newOwner",
          "type": "address"
        }
      ],
      "name": "OwnershipTransferred",
      "type": "event"
    },
    {
      "anonymous": false,
      "inputs": [
        {
          "indexed": true,
          "internalType": "address",
          "name": "from",
          "type": "address"
        },
        {
          "indexed": true,
          "internalType": "address",
          "name": "to",
          "type": "address"
        },
        {
          "indexed": false,
          "internalType": "uint256",
          "name": "value",
          "type": "uint256"
        }
      ],
      "name": "Transfer",
      "type": "event"
    },
    {
      "inputs": [],
      "name": "MAX_RELAYER_COUNTER",
      "outputs": [
        {
          "internalType": "uint256",
          "name": "",
          "type": "uint256"
        }
      ],
      "stateMutability": "view",
      "type": "function"
    },
    {
      "inputs": [],
      "name": "TORN_CONTRACT",
      "outputs": [
        {
          "internalType": "address",
          "name": "",
          "type": "address"
        }
      ],
      "stateMutability": "view",
      "type": "function"
    },
    {
      "inputs": [],
      "name": "TORN_RELAYER_REGISTRY",
      "outputs": [
        {
          "internalType": "address",
          "name": "",
          "type": "address"
        }
      ],
      "stateMutability": "view",
      "type": "function"
    },
    {
      "inputs": [
        {
          "internalType": "address",
          "name": "_in_come_contract",
          "type": "address"
        },
        {
          "internalType": "address",
          "name": "_deposit_contract",
          "type": "address"
        },
        {
          "internalType": "address",
          "name": "_exit_queue_contract",
          "type": "address"
        },
        {
          "internalType": "address",
          "name": "_profit_record_contract",
          "type": "address"
        }
      ],
      "name": "__RootDB_init",
      "outputs": [],
      "stateMutability": "nonpayable",
      "type": "function"
    },
    {
      "inputs": [
        {
          "internalType": "address",
          "name": "_in_come_contract",
          "type": "address"
        },
        {
          "internalType": "address",
          "name": "_deposit_contract",
          "type": "address"
        },
        {
          "internalType": "address",
          "name": "_exit_queue_contract",
          "type": "address"
        },
        {
          "internalType": "address",
          "name": "_profit_record_contract",
          "type": "address"
        }
      ],
      "name": "__RootDB_init_unchained",
      "outputs": [],
      "stateMutability": "nonpayable",
      "type": "function"
    },
    {
      "inputs": [
        {
          "internalType": "address",
          "name": "_relayer",
          "type": "address"
        },
        {
          "internalType": "uint256",
          "name": "_index",
          "type": "uint256"
        }
      ],
      "name": "addRelayer",
      "outputs": [],
      "stateMutability": "nonpayable",
      "type": "function"
    },
    {
      "inputs": [
        {
          "internalType": "address",
          "name": "owner",
          "type": "address"
        },
        {
          "internalType": "address",
          "name": "spender",
          "type": "address"
        }
      ],
      "name": "allowance",
      "outputs": [
        {
          "internalType": "uint256",
          "name": "",
          "type": "uint256"
        }
      ],
      "stateMutability": "view",
      "type": "function"
    },
    {
      "inputs": [
        {
          "internalType": "address",
          "name": "",
          "type": "address"
        },
        {
          "internalType": "uint256",
          "name": "",
          "type": "uint256"
        }
      ],
      "name": "approve",
      "outputs": [
        {
          "internalType": "bool",
          "name": "ret",
          "type": "bool"
        }
      ],
      "stateMutability": "nonpayable",
      "type": "function"
    },
    {
      "inputs": [
        {
          "internalType": "address",
          "name": "account",
          "type": "address"
        }
      ],
      "name": "balanceOf",
      "outputs": [
        {
          "internalType": "uint256",
          "name": "",
          "type": "uint256"
        }
      ],
      "stateMutability": "view",
      "type": "function"
    },
    {
      "inputs": [
        {
          "internalType": "address",
          "name": "_account",
          "type": "address"
        }
      ],
      "name": "balanceOfTorn",
      "outputs": [
        {
          "internalType": "uint256",
          "name": "",
          "type": "uint256"
        }
      ],
      "stateMutability": "view",
      "type": "function"
    },
    {
      "inputs": [],
      "name": "decimals",
      "outputs": [
        {
          "internalType": "uint8",
          "name": "",
          "type": "uint8"
        }
      ],
      "stateMutability": "view",
      "type": "function"
    },
    {
      "inputs": [
        {
          "internalType": "address",
          "name": "spender",
          "type": "address"
        },
        {
          "internalType": "uint256",
          "name": "subtractedValue",
          "type": "uint256"
        }
      ],
      "name": "decreaseAllowance",
      "outputs": [
        {
          "internalType": "bool",
          "name": "",
          "type": "bool"
        }
      ],
      "stateMutability": "nonpayable",
      "type": "function"
    },
    {
      "inputs": [],
      "name": "depositContract",
      "outputs": [
        {
          "internalType": "address",
          "name": "",
          "type": "address"
        }
      ],
      "stateMutability": "view",
      "type": "function"
    },
    {
      "inputs": [],
      "name": "exitQueueContract",
      "outputs": [
        {
          "internalType": "address",
          "name": "",
          "type": "address"
        }
      ],
      "stateMutability": "view",
      "type": "function"
    },
    {
      "inputs": [],
      "name": "inComeContract",
      "outputs": [
        {
          "internalType": "address",
          "name": "",
          "type": "address"
        }
      ],
      "stateMutability": "view",
      "type": "function"
    },
    {
      "inputs": [
        {
          "internalType": "address",
          "name": "spender",
          "type": "address"
        },
        {
          "internalType": "uint256",
          "name": "addedValue",
          "type": "uint256"
        }
      ],
      "name": "increaseAllowance",
      "outputs": [
        {
          "internalType": "bool",
          "name": "",
          "type": "bool"
        }
      ],
      "stateMutability": "nonpayable",
      "type": "function"
    },
    {
      "inputs": [
        {
          "internalType": "uint256",
          "name": "",
          "type": "uint256"
        }
      ],
      "name": "mRelayers",
      "outputs": [
        {
          "internalType": "address",
          "name": "",
          "type": "address"
        }
      ],
      "stateMutability": "view",
      "type": "function"
    },
    {
      "inputs": [],
      "name": "name",
      "outputs": [
        {
          "internalType": "string",
          "name": "",
          "type": "string"
        }
      ],
      "stateMutability": "view",
      "type": "function"
    },
    {
      "inputs": [],
      "name": "operator",
      "outputs": [
        {
          "internalType": "address",
          "name": "",
          "type": "address"
        }
      ],
      "stateMutability": "view",
      "type": "function"
    },
    {
      "inputs": [],
      "name": "owner",
      "outputs": [
        {
          "internalType": "address",
          "name": "",
          "type": "address"
        }
      ],
      "stateMutability": "view",
      "type": "function"
    },
    {
      "inputs": [],
      "name": "profitRecordContract",
      "outputs": [
        {
          "internalType": "address",
          "name": "",
          "type": "address"
        }
      ],
      "stateMutability": "view",
      "type": "function"
    },
    {
      "inputs": [
        {
          "internalType": "uint256",
          "name": "_index",
          "type": "uint256"
        }
      ],
      "name": "removeRelayer",
      "outputs": [],
      "stateMutability": "nonpayable",
      "type": "function"
    },
    {
      "inputs": [],
      "name": "renounceOwnership",
      "outputs": [],
      "stateMutability": "nonpayable",
      "type": "function"
    },
    {
      "inputs": [
        {
          "internalType": "address",
          "name": "_account",
          "type": "address"
        },
        {
          "internalType": "uint256",
          "name": "_token_qty",
          "type": "uint256"
        }
      ],
      "name": "safeBurn",
      "outputs": [],
      "stateMutability": "nonpayable",
      "type": "function"
    },
    {
      "inputs": [
        {
          "internalType": "address",
          "name": "_account",
          "type": "address"
        },
        {
          "internalType": "uint256",
          "name": "_torn_qty",
          "type": "uint256"
        }
      ],
      "name": "safeMint",
      "outputs": [
        {
          "internalType": "uint256",
          "name": "",
          "type": "uint256"
        }
      ],
      "stateMutability": "nonpayable",
      "type": "function"
    },
    {
      "inputs": [
        {
          "internalType": "address",
          "name": "_operator",
          "type": "address"
        }
      ],
      "name": "setOperator",
      "outputs": [],
      "stateMutability": "nonpayable",
      "type": "function"
    },
    {
      "inputs": [],
      "name": "symbol",
      "outputs": [
        {
          "internalType": "string",
          "name": "",
          "type": "string"
        }
      ],
      "stateMutability": "view",
      "type": "function"
    },
    {
      "inputs": [],
      "name": "totalRelayerTorn",
      "outputs": [
        {
          "internalType": "uint256",
          "name": "torn_qty",
          "type": "uint256"
        }
      ],
      "stateMutability": "view",
      "type": "function"
    },
    {
      "inputs": [],
      "name": "totalSupply",
      "outputs": [
        {
          "internalType": "uint256",
          "name": "",
          "type": "uint256"
        }
      ],
      "stateMutability": "view",
      "type": "function"
    },
    {
      "inputs": [],
      "name": "totalTorn",
      "outputs": [
        {
          "internalType": "uint256",
          "name": "torn_qty",
          "type": "uint256"
        }
      ],
      "stateMutability": "view",
      "type": "function"
    },
    {
      "inputs": [
        {
          "internalType": "address",
          "name": "to",
          "type": "address"
        },
        {
          "internalType": "uint256",
          "name": "amount",
          "type": "uint256"
        }
      ],
      "name": "transfer",
      "outputs": [
        {
          "internalType": "bool",
          "name": "",
          "type": "bool"
        }
      ],
      "stateMutability": "nonpayable",
      "type": "function"
    },
    {
      "inputs": [
        {
          "internalType": "address",
          "name": "from",
          "type": "address"
        },
        {
          "internalType": "address",
          "name": "to",
          "type": "address"
        },
        {
          "internalType": "uint256",
          "name": "amount",
          "type": "uint256"
        }
      ],
      "name": "transferFrom",
      "outputs": [
        {
          "internalType": "bool",
          "name": "",
          "type": "bool"
        }
      ],
      "stateMutability": "nonpayable",
      "type": "function"
    },
    {
      "inputs": [
        {
          "internalType": "address",
          "name": "newOwner",
          "type": "address"
        }
      ],
      "name": "transferOwnership",
      "outputs": [],
      "stateMutability": "nonpayable",
      "type": "function"
    },
    {
      "inputs": [
        {
          "internalType": "uint256",
          "name": "_token_qty",
          "type": "uint256"
        }
      ],
      "name": "valueForTorn",
      "outputs": [
        {
          "internalType": "uint256",
          "name": "",
          "type": "uint256"
        }
      ],
      "stateMutability": "view",
      "type": "function"
    }
  ],
  "bytecode": "0x60c06040523480156200001157600080fd5b5060405162001e7638038062001e76833981016040819052620000349162000069565b6001600160a01b039081166080521660a052620000a1565b80516001600160a01b03811681146200006457600080fd5b919050565b600080604083850312156200007d57600080fd5b62000088836200004c565b915062000098602084016200004c565b90509250929050565b60805160a051611da1620000d56000396000818161041b01526107840152600081816102e20152610c230152611da16000f3fe608060405234801561001057600080fd5b50600436106102065760003560e01c8063923074ca1161011a578063b91476f2116100ad578063e0f757881161007c578063e0f757881461046c578063e94ad65b14610495578063ea9b717e146104a8578063ebeabde9146104bb578063f2fde38b146104ce57600080fd5b8063b91476f214610416578063c96f3dd31461043d578063d543ce0e14610446578063dd62ed3e1461045957600080fd5b8063a1448194116100e9578063a1448194146103ca578063a457c2d7146103dd578063a9059cbb146103f0578063b3ab15fb1461040357600080fd5b8063923074ca146103945780639357c808146103a757806395d89b41146103af5780639f15d700146103b757600080fd5b8063313ce5671161019d578063570ca7351161016c578063570ca7351461032c57806370a082311461033f578063715018a6146103685780638be0099c146103705780638da5cb5b1461038357600080fd5b8063313ce567146102ce57806331e81921146102dd57806339509351146103045780634d7c7d6e1461031757600080fd5b806322a137e0116101d957806322a137e01461027557806323897f4f1461028857806323b872dd146102b357806329ab2c74146102c657600080fd5b806306fdde031461020b578063072e6bd014610229578063095ea7b31461024a57806318160ddd1461026d575b600080fd5b6102136104e1565b6040516102209190611921565b60405180910390f35b61023c610237366004611976565b610573565b604051908152602001610220565b61025d6102583660046119a6565b610609565b6040519015158152602001610220565b60675461023c565b61023c6102833660046119d0565b610647565b60995461029b906001600160a01b031681565b6040516001600160a01b039091168152602001610220565b61025d6102c13660046119f2565b6106c5565b61023c610733565b60405160128152602001610220565b61029b7f000000000000000000000000000000000000000000000000000000000000000081565b61025d6103123660046119a6565b610823565b61032a610325366004611a2e565b610845565b005b609a5461029b906001600160a01b031681565b61023c61034d3660046119d0565b6001600160a01b031660009081526065602052604090205490565b61032a6108bc565b61032a61037e366004611976565b6108f2565b6033546001600160a01b031661029b565b61032a6103a23660046119a6565b6109fa565b61023c610b81565b610213610d29565b61032a6103c53660046119a6565b610d38565b61023c6103d83660046119a6565b610da0565b61025d6103eb3660046119a6565b610ec9565b61025d6103fe3660046119a6565b610f4f565b61032a6104113660046119d0565b610fc0565b61029b7f000000000000000000000000000000000000000000000000000000000000000081565b61023c609c5481565b609b5461029b906001600160a01b031681565b61023c610467366004611a82565b61100c565b61029b61047a366004611976565b609d602052600090815260409020546001600160a01b031681565b60985461029b906001600160a01b031681565b60975461029b906001600160a01b031681565b61032a6104c9366004611a2e565b611037565b61032a6104dc3660046119d0565b611112565b6060606880546104f090611ab5565b80601f016020809104026020016040519081016040528092919081815260200182805461051c90611ab5565b80156105695780601f1061053e57610100808354040283529160200191610569565b820191906000526020600020905b81548152906001019060200180831161054c57829003601f168201915b5050505050905090565b600061057e60675490565b306001600160a01b0316639357c8086040518163ffffffff1660e01b815260040160206040518083038186803b1580156105b757600080fd5b505afa1580156105cb573d6000803e3d6000fd5b505050506040513d601f19601f820116820180604052508101906105ef9190611af0565b6105f99084611b1f565b6106039190611b3e565b92915050565b60405162461bcd60e51b815260206004820152600b60248201526a65727220617070726f766560a81b60448201526000906064015b60405180910390fd5b6040516370a0823160e01b81526001600160a01b03821660048201526000906106039030906370a082319060240160206040518083038186803b15801561068d57600080fd5b505afa1580156106a1573d6000803e3d6000fd5b505050506040513d601f19601f820116820180604052508101906102379190611af0565b6097546000906001600160a01b0316336001600160a01b03161461071e5760405162461bcd60e51b815260206004820152601060248201526f657272207472616e7366657246726f6d60801b604482015260640161063e565b6107298484846111ad565b5060019392505050565b609c546000908190815b8181101561081d576000818152609d60205260409020546001600160a01b03169250821561080b5760405163b971a6bf60e01b81526001600160a01b0384811660048301527f0000000000000000000000000000000000000000000000000000000000000000169063b971a6bf9060240160206040518083038186803b1580156107c657600080fd5b505afa1580156107da573d6000803e3d6000fd5b505050506040513d601f19601f820116820180604052508101906107fe9190611af0565b6108089085611b60565b93505b8061081581611b78565b91505061073d565b50505090565b600033610729818585610836838361100c565b6108409190611b60565b61137c565b600054610100900460ff1661086c5760405162461bcd60e51b815260040161063e90611b93565b609980546001600160a01b039586166001600160a01b03199182161790915560988054948616948216949094179093556097805492851692841692909217909155609b8054919093169116179055565b6033546001600160a01b031633146108e65760405162461bcd60e51b815260040161063e90611bde565b6108f060006114a1565b565b6033546001600160a01b0316331461091c5760405162461bcd60e51b815260040161063e90611bde565b609c54811061095f5760405162461bcd60e51b815260206004820152600f60248201526e0e8dede40d8c2e4ceca40d2dcc8caf608b1b604482015260640161063e565b609c5461096d826001611b60565b141561098c576001609c60008282546109869190611c13565b90915550505b6000818152609d60205260409020546001600160a01b03166109dc5760405162461bcd60e51b815260206004820152600960248201526834b73232bc1032b93960b91b604482015260640161063e565b6000908152609d6020526040902080546001600160a01b0319169055565b6033546001600160a01b03163314610a245760405162461bcd60e51b815260040161063e90611bde565b609c54811115610a685760405162461bcd60e51b815260206004820152600f60248201526e0e8dede40d8c2e4ceca40d2dcc8caf608b1b604482015260640161063e565b609c5460005b81811015610add576000818152609d60205260409020546001600160a01b0385811691161415610acb5760405162461bcd60e51b81526020600482015260086024820152671c995c19585d195960c21b604482015260640161063e565b80610ad581611b78565b915050610a6e565b50609c54821415610b01576001609c6000828254610afb9190611b60565b90915550505b6000828152609d60205260409020546001600160a01b031615610b525760405162461bcd60e51b815260206004820152600960248201526834b73232bc1032b93960b91b604482015260640161063e565b506000908152609d6020526040902080546001600160a01b0319166001600160a01b0392909216919091179055565b6098546040805163e2e622cd60e01b815290516000926001600160a01b03169163e2e622cd916004808301926020929190829003018186803b158015610bc657600080fd5b505afa158015610bda573d6000803e3d6000fd5b505050506040513d601f19601f82011682018060405250810190610bfe9190611af0565b6099546040516370a0823160e01b81526001600160a01b0391821660048201529192507f000000000000000000000000000000000000000000000000000000000000000016906370a082319060240160206040518083038186803b158015610c6557600080fd5b505afa158015610c79573d6000803e3d6000fd5b505050506040513d601f19601f82011682018060405250810190610c9d9190611af0565b610ca79082611b60565b9050306001600160a01b03166329ab2c746040518163ffffffff1660e01b815260040160206040518083038186803b158015610ce257600080fd5b505afa158015610cf6573d6000803e3d6000fd5b505050506040513d601f19601f82011682018060405250810190610d1a9190611af0565b610d249082611b60565b905090565b6060606980546104f090611ab5565b6098546001600160a01b03163314610d925760405162461bcd60e51b815260206004820152601d60248201527f43616c6c6572206973206e6f74206465706f736974436f6e7472616374000000604482015260640161063e565b610d9c82826114f3565b5050565b6098546000906001600160a01b03163314610dfd5760405162461bcd60e51b815260206004820152601d60248201527f43616c6c6572206973206e6f74206465706f736974436f6e7472616374000000604482015260640161063e565b6000610e0860675490565b9050600081610e2f57610e1d6012600a611d0e565b610e2890600a611b1f565b9050610eb7565b306001600160a01b0316639357c8086040518163ffffffff1660e01b815260040160206040518083038186803b158015610e6857600080fd5b505afa158015610e7c573d6000803e3d6000fd5b505050506040513d601f19601f82011682018060405250810190610ea09190611af0565b610eaa8584611b1f565b610eb49190611b3e565b90505b610ec1858261163e565b949350505050565b60003381610ed7828661100c565b905083811015610f375760405162461bcd60e51b815260206004820152602560248201527f45524332303a2064656372656173656420616c6c6f77616e63652062656c6f77604482015264207a65726f60d81b606482015260840161063e565b610f44828686840361137c565b506001949350505050565b60975460009033906001600160a01b0316811480610f7a57506097546001600160a01b038581169116145b610fb55760405162461bcd60e51b815260206004820152600c60248201526b32b939103a3930b739b332b960a11b604482015260640161063e565b6107298185856111ad565b6033546001600160a01b03163314610fea5760405162461bcd60e51b815260040161063e90611bde565b609a80546001600160a01b0319166001600160a01b0392909216919091179055565b6001600160a01b03918216600090815260666020908152604080832093909416825291909152205490565b6000611043600161171d565b9050801561105b576000805461ff0019166101001790555b61106785858585610845565b6110bd6040518060400160405280600b81526020016a72656c617965725f64616f60a81b815250604051806040016040528060118152602001703932b630bcb2b92fb230b7afba37b5b2b760791b8152506117aa565b6110c56117db565b801561110b576000805461ff0019169055604051600181527f7f26b83ff96e1f2b6a682f133852f6798a09c465da95921460cefb38474024989060200160405180910390a15b5050505050565b6033546001600160a01b0316331461113c5760405162461bcd60e51b815260040161063e90611bde565b6001600160a01b0381166111a15760405162461bcd60e51b815260206004820152602660248201527f4f776e61626c653a206e6577206f776e657220697320746865207a65726f206160448201526564647265737360d01b606482015260840161063e565b6111aa816114a1565b50565b6001600160a01b0383166112115760405162461bcd60e51b815260206004820152602560248201527f45524332303a207472616e736665722066726f6d20746865207a65726f206164604482015264647265737360d81b606482015260840161063e565b6001600160a01b0382166112735760405162461bcd60e51b815260206004820152602360248201527f45524332303a207472616e7366657220746f20746865207a65726f206164647260448201526265737360e81b606482015260840161063e565b6001600160a01b038316600090815260656020526040902054818110156112eb5760405162461bcd60e51b815260206004820152602660248201527f45524332303a207472616e7366657220616d6f756e7420657863656564732062604482015265616c616e636560d01b606482015260840161063e565b6001600160a01b03808516600090815260656020526040808220858503905591851681529081208054849290611322908490611b60565b92505081905550826001600160a01b0316846001600160a01b03167fddf252ad1be2c89b69c2b068fc378daa952ba7f163c4a11628f55a4df523b3ef8460405161136e91815260200190565b60405180910390a350505050565b6001600160a01b0383166113de5760405162461bcd60e51b8152602060048201526024808201527f45524332303a20617070726f76652066726f6d20746865207a65726f206164646044820152637265737360e01b606482015260840161063e565b6001600160a01b03821661143f5760405162461bcd60e51b815260206004820152602260248201527f45524332303a20617070726f766520746f20746865207a65726f206164647265604482015261737360f01b606482015260840161063e565b6001600160a01b0383811660008181526066602090815260408083209487168084529482529182902085905590518481527f8c5be1e5ebec7d5bd14f71427d1e84f3dd0314c0f7b2291e5b200ac8c7c3b92591015b60405180910390a3505050565b603380546001600160a01b038381166001600160a01b0319831681179093556040519116919082907f8be0079c531659141344cd1fd0a4f28419497f9722a3daafe3b4186f6b6457e090600090a35050565b6001600160a01b0382166115535760405162461bcd60e51b815260206004820152602160248201527f45524332303a206275726e2066726f6d20746865207a65726f206164647265736044820152607360f81b606482015260840161063e565b6001600160a01b038216600090815260656020526040902054818110156115c75760405162461bcd60e51b815260206004820152602260248201527f45524332303a206275726e20616d6f756e7420657863656564732062616c616e604482015261636560f01b606482015260840161063e565b6001600160a01b03831660009081526065602052604081208383039055606780548492906115f6908490611c13565b90915550506040518281526000906001600160a01b038516907fddf252ad1be2c89b69c2b068fc378daa952ba7f163c4a11628f55a4df523b3ef90602001611494565b505050565b6001600160a01b0382166116945760405162461bcd60e51b815260206004820152601f60248201527f45524332303a206d696e7420746f20746865207a65726f206164647265737300604482015260640161063e565b80606760008282546116a69190611b60565b90915550506001600160a01b038216600090815260656020526040812080548392906116d3908490611b60565b90915550506040518181526001600160a01b038316906000907fddf252ad1be2c89b69c2b068fc378daa952ba7f163c4a11628f55a4df523b3ef9060200160405180910390a35050565b60008054610100900460ff1615611764578160ff1660011480156117405750303b155b61175c5760405162461bcd60e51b815260040161063e90611d1d565b506000919050565b60005460ff80841691161061178b5760405162461bcd60e51b815260040161063e90611d1d565b506000805460ff191660ff92909216919091179055600190565b919050565b600054610100900460ff166117d15760405162461bcd60e51b815260040161063e90611b93565b610d9c828261180a565b600054610100900460ff166118025760405162461bcd60e51b815260040161063e90611b93565b6108f0611858565b600054610100900460ff166118315760405162461bcd60e51b815260040161063e90611b93565b8151611844906068906020850190611888565b508051611639906069906020840190611888565b600054610100900460ff1661187f5760405162461bcd60e51b815260040161063e90611b93565b6108f0336114a1565b82805461189490611ab5565b90600052602060002090601f0160209004810192826118b657600085556118fc565b82601f106118cf57805160ff19168380011785556118fc565b828001600101855582156118fc579182015b828111156118fc5782518255916020019190600101906118e1565b5061190892915061190c565b5090565b5b80821115611908576000815560010161190d565b600060208083528351808285015260005b8181101561194e57858101830151858201604001528201611932565b81811115611960576000604083870101525b50601f01601f1916929092016040019392505050565b60006020828403121561198857600080fd5b5035919050565b80356001600160a01b03811681146117a557600080fd5b600080604083850312156119b957600080fd5b6119c28361198f565b946020939093013593505050565b6000602082840312156119e257600080fd5b6119eb8261198f565b9392505050565b600080600060608486031215611a0757600080fd5b611a108461198f565b9250611a1e6020850161198f565b9150604084013590509250925092565b60008060008060808587031215611a4457600080fd5b611a4d8561198f565b9350611a5b6020860161198f565b9250611a696040860161198f565b9150611a776060860161198f565b905092959194509250565b60008060408385031215611a9557600080fd5b611a9e8361198f565b9150611aac6020840161198f565b90509250929050565b600181811c90821680611ac957607f821691505b60208210811415611aea57634e487b7160e01b600052602260045260246000fd5b50919050565b600060208284031215611b0257600080fd5b5051919050565b634e487b7160e01b600052601160045260246000fd5b6000816000190483118215151615611b3957611b39611b09565b500290565b600082611b5b57634e487b7160e01b600052601260045260246000fd5b500490565b60008219821115611b7357611b73611b09565b500190565b6000600019821415611b8c57611b8c611b09565b5060010190565b6020808252602b908201527f496e697469616c697a61626c653a20636f6e7472616374206973206e6f74206960408201526a6e697469616c697a696e6760a81b606082015260800190565b6020808252818101527f4f776e61626c653a2063616c6c6572206973206e6f7420746865206f776e6572604082015260600190565b600082821015611c2557611c25611b09565b500390565b600181815b80851115611c65578160001904821115611c4b57611c4b611b09565b80851615611c5857918102915b93841c9390800290611c2f565b509250929050565b600082611c7c57506001610603565b81611c8957506000610603565b8160018114611c9f5760028114611ca957611cc5565b6001915050610603565b60ff841115611cba57611cba611b09565b50506001821b610603565b5060208310610133831016604e8410600b8410161715611ce8575081810a610603565b611cf28383611c2a565b8060001904821115611d0657611d06611b09565b029392505050565b60006119eb60ff841683611c6d565b6020808252602e908201527f496e697469616c697a61626c653a20636f6e747261637420697320616c72656160408201526d191e481a5b9a5d1a585b1a5e995960921b60608201526080019056fea2646970667358221220c043bfbcae2f26eb96ed1558ac16b33b78d415c02f3c4c71bdfdad436491fa1d64736f6c63430008090033",
  "linkReferences": {},
  "deployedLinkReferences": {}
}